:100000000C94A8000C94D0000C94D0000C94D00058
:100010000C94D0000C94D0000C94D0000C94D00020
:100020000C94D0000C94D0000C94D0000C94D00010
:100030000C94D0000C94D0000C94D0000C94D00000
:100040000C9444040C94D0000C94B4040C948E04CE
:100050000C94D0000C94D0000C94D0000C94D000E0
:100060000C94D0000C94D00008000000BE922449EB
:10007000123EABAAAA2ABECDCCCC4C3E00000080DA
:10008000BEABAAAAAA3E00000000BF000000803F4D
:100090000000000000084178D3BB4387D1133D190D
:1000A0000E3CC3BD4282AD2B3E68EC8276BED98F3A
:1000B000E1A93E4C80EFFFBE01C4FF7F3F0000007E
:1000C00000004E414E494E495459494E46CDCCCC84
:1000D0003D0AD7233C17B7D13877CC2B329595E61C
:1000E000241FB14F0A000020410000C84200401CFC
:1000F0004620BCBE4CCA1B0E5AAEC59D7400000003
:1001000008000201000003040700000000000000D6
:100110000000000000250028002B00000000002443
:100120000027002A00040404040404040402020258
:100130000202020303030303030102040810204028
:100140008001020408102001020408102000E604C7
:1001500011241FBECFEFD8E0DEBFCDBF22E0A4E563
:10016000B1E001C01D92A836B207E1F711E0A0E0AE
:10017000B1E0E2E2F4E202C005900D92A435B107CD
:10018000D9F710E0C8EAD0E004C02197FE010E9430
:100190001710C73AD107C9F70E9425060C940F1211
:1001A0000C94000090E0FC01E75CFE4F24918B5D15
:1001B0009E4FFC018491882399F090E0880F991F4D
:1001C000FC01E55EFE4FA591B491FC01EF5EFE4F90
:1001D000859194918FB7F894EC91E22BEC938FBFBB
:1001E000089590E0FC01E350FF4F2491FC01E75C8F
:1001F000FE4F3491FC01EB5DFE4FE491EE23C9F01C
:10020000222339F0233001F1A8F4213019F12230F2
:1002100029F1F0E0EE0FFF1FEF5EFE4FA591B491C4
:100220008FB7F894EC91611126C030953E233C9332
:100230008FBF08952730A9F02830C9F0243049F73E
:10024000809180008F7D03C0809180008F778093A4
:100250008000DFCF84B58F7784BDDBCF84B58F7D01
:10026000FBCF8091B0008F778093B000D2CF809188
:10027000B0008F7DF9CF3E2BDACF3FB7F894809155
:10028000550190915601A0915701B091580126B5A2
:10029000A89B05C02F3F19F00196A11DB11D3FBFBE
:1002A000BA2FA92F982F8827BC01CD01620F711D8D
:1002B000811D911D42E0660F771F881F991F4A9587
:1002C000D1F708958F929F92AF92BF92CF92DF9213
:1002D000EF92FF924B015C010E943D016B017C019A
:1002E0000E943D016C197D098E099F09683E73408B
:1002F00081059105A8F321E0821A9108A108B108AF
:1003000088EEC80E83E0D81EE11CF11C8114910414
:10031000A104B10429F7FF90EF90DF90CF90BF9038
:10032000AF909F908F900895AF92BF92CF92DF923F
:10033000EF92FF920F931F93CF93DF936C017B019A
:100340008B01040F151FEB015E01AE18BF08C0172B
:10035000D10759F06991D601ED91FC910190F0819E
:10036000E02DC6010995892B79F7C501DF91CF9161
:100370001F910F91FF90EF90DF90CF90BF90AF90C3
:100380000895FC01538D448D252F30E0842F90E09B
:10039000821B930B541710F0CF9608950197089580
:1003A000FC01918D828D981761F0A28DAE0FBF2F49
:1003B000B11D5D968C91928D9F5F9F73928F90E09F
:1003C00008958FEF9FEF08952FB7F8948091F6016D
:1003D0009091F701A091F801B091F9012FBF80939E
:1003E000610190936201A0936301B093640189E578
:1003F00091E00E94D00197FF26C02FB7F89480911A
:10040000F6019091F701A091F801B091F9012FBF89
:1004100040916101509162016091630170916401AA
:10042000841B950BA60BB70B40915D0150915E01AB
:1004300060915F017091600184179507A607B70767
:10044000B0F28FEF9FEF0895FC01918D828D981788
:1004500031F0828DE80FF11D858D90E008958FEFCA
:100460009FEF0895FC01918D228D892F90E0805C93
:100470009F4F821B91098F739927089589E591E019
:100480000E94320221E0892B09F420E0822F089596
:1004900080E090E0892B29F00E943E0281110C94AB
:1004A00000000895FC01A48DA80FB92FB11DA35A17
:1004B000BF4F2C91848D90E001968F739927848F84
:1004C000A689B7892C93A089B1898C9183708064A7
:1004D0008C93938D848D981306C00288F389E02D48
:1004E00080818F7D80830895EF92FF920F931F93F9
:1004F000CF93DF93EC0181E0888F9B8D8C8D9813D7
:100500001AC0E889F989808185FF15C09FB7F894E2
:10051000EE89FF896083E889F9898081837080642E
:1005200080839FBF81E090E0DF91CF911F910F9179
:10053000FF90EF900895F62E0B8D10E00F5F1F4F88
:100540000F731127E02E8C8D8E110CC00FB607FC97
:10055000FACFE889F989808185FFF5CFCE010E9425
:100560005202F1CFEB8DEC0FFD2FF11DE35AFF4F3F
:10057000F0829FB7F8940B8FEA89FB8980818062B3
:10058000CFCFCF93DF93EC01888D8823B9F0AA8970
:10059000BB89E889F9898C9185FD03C0808186FD3E
:1005A0000DC00FB607FCF7CF8C9185FFF2CF80818D
:1005B00085FFEDCFCE010E945202E9CFDF91CF91AE
:1005C0000895FC0101900020E9F73197AF01481B25
:1005D000590BBC0189E591E00C9494018F929F9294
:1005E000AF92BF920F931F93CF93DF93CDB7DEB738
:1005F000A1970FB6F894DEBF0FBECDBF19A242304F
:1006000008F44AE08E010F5D1F4F842E912CB12C0F
:10061000A12CA50194010E94E10FE62FB901CA01A6
:10062000EA30F4F4E05DD801EE938D01232B242B06
:10063000252B79F790E080E0109719F0CD010E940A
:10064000E102A1960FB6F894DEBF0FBECDBFDF91D9
:10065000CF911F910F91BF90AF909F908F90089571
:10066000E95CE1CF4F925F926F927F928F929F925F
:10067000AF92BF92CF92DF92EF92FF920F931F93B0
:10068000CF936B017C01742EAC019B010E94930FF0
:10069000882399F08AE191E0CF911F910F91FF900B
:1006A000EF90DF90CF90BF90AF909F908F907F9012
:1006B0006F905F904F900C94E10246015701E894CF
:1006C000B7F82FEF3FEF4FE75FE7C501B4010E9496
:1006D000930F81110DC02FEF3FEF4FE75FE7C5018B
:1006E000B4010E94B10C18161CF48EE191E0D4CF35
:1006F0002FEF3FEF4FE75FE4C701B6010E943E0FC7
:1007000018161CF482E291E0C7CF2FEF3FEF4FE7BE
:100710005FECC701B6010E94B10C87FDF3CF20E06A
:1007200030E0A901C701B6010E94B10C10E000E061
:1007300087FF0AC06DE289E591E00E9474028C0196
:10074000F7FAF094F7F8F094C0E060E070E080E031
:100750009FE37C1641F020E030E040E251E40E944B
:10076000960ECF5FF6CFA70196010E942A0E2B01AD
:100770003C010E940F0F4B015C014AE00E94EE0217
:100780007C01E00EF11ECC23C1F1C501B4010E9431
:10079000B60C9B01AC01C301B2010E94290E4B01B2
:1007A0005C016EE289E591E00E947402E80EF91E98
:1007B000C15018F120E030E040E251E4C501B4013D
:1007C0000E94170D2B013C010E940F0F4B01B12C11
:1007D000A12C4AE0C501B4010E94EE02E80EF91E08
:1007E000C501B4010E94B60C9B01AC01C301B2016A
:1007F0000E94290E4B015C01DBCFC701CF911F91F5
:100800000F91FF90EF90DF90CF90BF90AF909F90AF
:100810008F907F906F905F904F900895CF93DF936C
:100820000E94E102EC0186E291E00E94E1028C0F5D
:100830009D1FDF91CF9108950F931F93CF93DF9367
:10084000EC0188819981009759F02A813B81261714
:10085000370730F081E0DF91CF911F910F9108951C
:100860008B016F5F7F4F0E944211009759F099836F
:1008700088831B830A832C813D81232B59F7FC013C
:100880001082E8CF80E0E7CF1F920F920FB60F9251
:1008900011242F933F938F939F93AF93BF93809196
:1008A000F6019091F701A091F801B091F901309112
:1008B000540123E0230F2D3758F50196A11DB11DDA
:1008C000209354018093F6019093F701A093F801CF
:1008D000B093F9018091550190915601A091570173
:1008E000B09158010196A11DB11D809355019093BF
:1008F0005601A0935701B0935801BF91AF919F91BA
:100900008F913F912F910F900FBE0F901F901895D0
:1009100026E8230F0296A11DB11DD2CF1F920F9280
:100920000FB60F9211242F933F934F935F936F93C2
:100930007F938F939F93AF93BF93EF93FF9389E53B
:1009400091E00E945202FF91EF91BF91AF919F9170
:100950008F917F916F915F914F913F912F910F9068
:100960000FBE0F901F9018951F920F920FB60F9207
:1009700011242F938F939F93EF93FF93E09169013D
:10098000F0916A018081E0916F01F091700182FD28
:100990001BC09081809172018F5F8F7320917301D2
:1009A000821741F0E0917201F0E0E75AFE4F958F17
:1009B00080937201FF91EF919F918F912F910F90F2
:1009C0000FBE0F901F9018958081F4CF10925C019C
:1009D00010925B0188EE93E0A0E0B0E080935D01AF
:1009E00090935E01A0935F01B09360018CE091E071
:1009F00090935A018093590185EC90E090936601A1
:100A00008093650184EC90E0909368018093670186
:100A100080EC90E090936A018093690181EC90E012
:100A200090936C0180936B0182EC90E090936E0147
:100A300080936D0186EC90E09093700180936F013C
:100A4000109272011092730110927401109275014C
:100A500010924302109244021092450210924602F4
:100A600080E090E0A0E0B0E48093470290934802D9
:100A7000A0934902B0934A0210924C0210924B028A
:100A800040E050E060EF71E440934D0250934E021D
:100A900060934F02709350021092510210925202D2
:100AA0001092530210925402109255021092560264
:100AB00010925702109258021092590210925A0244
:100AC00010925B0210925C0228E030E030935F02EB
:100AD00020935E022BE030E03093610220936002AD
:100AE00020910001309101014EEF51E05093250219
:100AF0004093240242E052E05093230240932202AA
:100B00004AEF51E050932702409326021092400290
:100B1000109238021092390210923A0210923B025F
:100B200040E050E06FE773E440933C0250933D0295
:100B300060933E0270933F0244E650E060E070E054
:100B4000409334025093350260933602709337021B
:100B500030931F0220931E02109221021092200255
:100B6000109241028093060290930702A09308021C
:100B7000B093090240E050E060E07FE340930A0256
:100B800050930B0260930C0270930D0210920E02B0
:100B900010920F0210921002109211028093120212
:100BA00090931302A0931402B09315028DEC9CEC69
:100BB000ACE4BDE38093160290931702A093180251
:100BC000B093190210921A0210921B0210921C028A
:100BD00010921D0221303105C1F480E090E0A0E0C8
:100BE000B0EC8093120290931302A0931402B0937E
:100BF00015028DEC9CECACE4BDEB80931602909357
:100C00001702A0931802B09319022FB7F89480919D
:100C1000F6019091F701A091F801B091F9012FBF71
:100C20004091340250913502609136027091370242
:100C3000841B950BA60BB70B809328029093290277
:100C4000A0932A02B0932B020895CF93DF93CDB7E0
:100C5000DEB767970FB6F894DEBF0FBECDBF7894AE
:100C600084B5826084BD84B5816084BD85B58260B1
:100C700085BD85B5816085BD80916E008160809362
:100C80006E001092810080918100826080938100CB
:100C900080918100816080938100809180008160DB
:100CA000809380008091B10084608093B100809136
:100CB000B00081608093B00080917A00846080935E
:100CC0007A0080917A00826080937A0080917A0025
:100CD000816080937A0080917A00806880937A00A6
:100CE0001092C100E0916901F0916A0182E0808375
:100CF000E0916501F09166011082E0916701F09149
:100D000068018FEC808310927101E0916D01F09188
:100D10006E0186E08083E0916B01F0916C0180812F
:100D200080618083E0916B01F0916C01808188602B
:100D30008083E0916B01F0916C01808180688083F9
:100D4000E0916B01F0916C0180818F7D80838091B7
:100D50005E020E94D200809160020E94D2008091C7
:100D60004002811149C0E0912402F0912502C08027
:100D7000D180E280F380C0922C02D0922D02E092CA
:100D80002E02F0922F02E0912202F0912302808144
:100D90009181A281B3818093300290933102A0931C
:100DA0003202B093330280903C0290903D02A090BA
:100DB0003E02B0903F02A5019401C701B6010E9416
:100DC0003E0F18164CF480922C0290922D02A092A5
:100DD0002E02B0922F0210C08090380290903902FB
:100DE000A0903A02B0903B02A5019401C701B60160
:100DF0000E94B10C87FDE7CF81E080934002809193
:100E00005D02811112C12091510230915202409134
:100E100053025091540260914D0270914E028091A4
:100E20004F02909150020E94B10C87FFFEC01092B9
:100E300042024090470250904802609049027090F0
:100E40004A02C0905102D0905202E0905302F090BA
:100E500054028090590290905A02A0905B02B09088
:100E60005C026091420270E090E080E00E94B80C69
:100E7000A30192010E94B10C87FF1AC0A70196013D
:100E8000C501B4010E942A0E6093590270935A0260
:100E900080935B0290935C026AE070E080E090E0F7
:100EA0000E946201809142028F5F80934202C1CF13
:100EB000A3019201C501B4010E94960E60935902EC
:100EC00070935A0280935B0290935C0210915E02D1
:100ED000A70196010E94B10C60E087FF95C0812FA9
:100EE0000E94F10060E0809160020E94F10089E2BE
:100EF00091E00E940E0449855A8550930101409368
:100F0000000180914002882309F447C080911E02AD
:100F100090911F028417950709F43FC02091120297
:100F200030911302409114025091150260E070E07C
:100F3000CB010E94290E60931202709313028093DA
:100F400014029093150220911602309117024091DD
:100F500018025091190260E070E0CB010E94290E46
:100F600060931602709317028093180290931902EF
:100F700020911A0230911B0240911C0250911D02D7
:100F800060E070E0CB010E94290E60931A0270931A
:100F90001B0280931C0290931D0289859A85909371
:100FA0001F0280931E0210924C0210924B0210926C
:100FB000420280914202853008F048C093E4909349
:100FC0007C0080917A00806480937A0080917A001E
:100FD00086FDFCCF209178003091790080914B0202
:100FE00090914C02820F931F90934C0280934B027E
:100FF0006AE070E080E090E00E946201809142022D
:101000008F5F80934202D5CF812F0E94F10061E073
:10101000809160020E94F10082E391E00E940E0440
:1010200021E030E03A87298766CF61E080915E0257
:101030000E94F10060E0809160020E94F1008AE36A
:1010400091E00E940E041A86198655CF80914B02BA
:1010500090914C0265E070E00E94CD0F072E000CCD
:10106000880B990B0E94B80C9B01AC0160E070ECFE
:101070008FE794E40E94960E20E030E040E85FE3C2
:101080000E94290E9B01AC0160E070E48CE196E4C3
:101090000E94960E6093430270934402809345022F
:1010A0009093460220E030E44CE156E40E94960E14
:1010B0000E944B0F20E030E848E755E40E94960E6E
:1010C0002FE03FEC4BE55BE30E942A0E9B01AC0155
:1010D00060E070E080E89FE30E94960E23E333E92E
:1010E00048E853E40E94290E609351027093520223
:1010F0008093530290935402609302027093030210
:10110000809304029093050289E591E00E943202E7
:10111000181619060CF07AC01A8219821C821B82DA
:101120001E821D8270E060E0CE0101960E941C04C8
:1011300029813A8181112EC02115310519F0C9018B
:101140000E94B9101A8219821E821D821C821B8283
:101150000E94E40197FD26C08A30910519F18F8322
:1011600018860D811E810F5F1F4FB801CE010196B9
:101170000E941C04882361F329813A818D819E811C
:10118000BE01695F7F4F820F931F0E9408121E836A
:101190000D83DECF1E821D8268E271E0C9010E94CC
:1011A0000812D6CFA980BA80A114B10439F00D81FC
:1011B0001E8175010115110509F0C6C189819A8149
:1011C00020E030E0A901009721F00E943C0B9B0138
:1011D000AC0120934D0230934E0240934F02509346
:1011E0005002609155027091560280915702909181
:1011F00058020E94B10C881F8827881F80935D02C7
:1012000089819A81009711F00E94B91080914D0256
:1012100090914E02A0914F02B091500280935502DE
:1012200090935602A0935702B09358028093FA010C
:101230009093FB01A093FC01B093FD0180914002CB
:10124000882309F425C18FB7F8942091F6013091D5
:10125000F7014091F8015091F9012C8B3D8B4E8B99
:101260005F8B8FBF8091280290912902A0912A0262
:10127000B0912B024C895D896E897F89481B590B7F
:101280006A0B7B0B8091340290913502A09136025B
:10129000B0913702481759076A077B0708F4F8C06E
:1012A000E0912202F091230280819181A281B38199
:1012B0008B879C87AD87BE87E0912602F09127023D
:1012C0009C01AD0160817181828193810E94290E10
:1012D0004B015C0120913002309131024091320289
:1012E000509133026B857C858D859E850E94290EE9
:1012F0006B017C0120911602309117024091180277
:1013000050911902C501B4010E94170D20912C02C1
:1013100030912D0240912E0250912F020E942A0EF0
:101320002B013C0140922C0250922D0260922E0221
:1013300070922F02909141029F8791111AC02091C3
:101340001202309113024091140250911502C7010C
:10135000B6010E94170D9B01AC01C301B2010E94AE
:10136000290E60932C0270932D0280932E0290938D
:101370002F0240902C0250902D0260902E0270900F
:101380002F0220903C0230903D0200913E021091CD
:101390003F029101A801C301B2010E943E0F18163D
:1013A0000CF008C1C101D80180932C0290932D024A
:1013B000A0932E02B0932F029F85992309F411C1A7
:1013C00020911202309113024091140250911502A3
:1013D000C501B4010E94170D4B015C0120911A0256
:1013E00030911B0240911C0250911D02C701B601B1
:1013F0000E94170D9B01AC0160912C0270912D028F
:1014000080912E0290912F020E94290EA501940135
:101410000E942A0E6B017C019B01AC01B101C80145
:101420000E94B10C87FD12C0209038023090390222
:1014300000913A0210913B029101A801B601C70147
:101440000E94B10C87FD02C016018701E0912402C1
:10145000F0912502C101D80180839183A283B383D7
:101460002B853C854D855E8520933002309331027B
:1014700040933202509333028C899D89AE89BF8993
:101480008093280290932902A0932A02B0932B0202
:101490006091FE017091FF01809100029091010224
:1014A0000E94080F6B018B0189E00E94D200C114D9
:1014B000D10409F09AC060E089E00E94F10082E462
:1014C00091E00E94E102609102027091030280911A
:1014D00004029091050242E00E94320388E491E008
:1014E0000E94E1026091FA017091FB018091FC0180
:1014F0009091FD0142E00E9432038EE491E00E944F
:10150000E1026091FE017091FF01809100029091D3
:10151000010242E00E94320386E291E00E94E10271
:101520006AEF70E080E090E00E94620120E030E02D
:10153000232B09F464CC0E943E02882309F45FCC7B
:101540000E9400005CCC76016701AFEFCA1ADA0A8C
:10155000F7018081082E000C990B0E94900C892BBA
:1015600091F7015011090A0D1B1DD8018C91082E0D
:10157000000C990B0E94900C892B31F00E151F0561
:1015800018F001501109F1CF0F5F1F4FA8014E193C
:101590005F095E834D83AE14BF0420F4B701C5011B
:1015A0000E94FF11E981FA818D819E81E80FF91F68
:1015B000108204CE209138023091390240913A02D3
:1015C00050913B02288B398B4A8B5B8BC301B20154
:1015D0000E94B10C87FFF0CE88899989AA89BB89BE
:1015E000E3CE812C912C5401F9CE0F3F110511F45B
:1015F00061E062CFE6E0F1E08491833019F140F4DC
:101600008130B1F08230C9F0003811058CF753CF2A
:10161000873011F1883041F18430B1F7809180003A
:10162000806280938000D0928B00C0928A0047CF66
:1016300084B5806884BDC7BC42CF84B5806284BD58
:10164000C8BC3DCF80918000806880938000D0929C
:101650008900C092880033CF8091B0008068809369
:10166000B000C092B3002BCF8091B0008062809315
:10167000B000C092B40023CF662777270C94400BAC
:10168000B0E0A0E0E6E4FBE00C94E90D5C017B0136
:101690006115710519F0DB018D939C9385010F5F36
:1016A0001F4FF501D0818D2F90E00E94900C6C01AE
:1016B000892BB9F5DD32B9F50F5F1F4FD5011196B2
:1016C000DC91C1E05801F1E0AF1AB10843E050E00D
:1016D0006AEC70E0C5010E94990C892B69F56801DC
:1016E00082E0C80ED11C45E050E065EC70E0C60118
:1016F0000E94990C892B21F4680197E0C90ED11C36
:10170000E114F10419F0D701CD92DC9260E070E0B1
:1017100080E89FEFC111FFC060E070E080E89FE7C4
:10172000FAC05801BBCFDB3229F485010E5F1F4F91
:10173000F501D181C0E0C6CF43E050E062EC70E03B
:10174000C5010E94990C892BE9F0F80110E000E036
:1017500020E030E0A9015F01B0ED8B2E8D0E89E015
:101760008815C8F19C2E689491F88C2F8870C2FF60
:1017700016C0811102C00F5F1F4F3196D501DC9159
:10178000C92DE9CFE114F10429F00E5F1F4FF701D5
:101790001183008360E070E080EC9FE7BCC0882389
:1017A00011F001501109A5E0B0E00E94D80D9B0195
:1017B000AC01220F331F441F551F280D311D411D41
:1017C000511D283999E93907490799E15907A8F2C4
:1017D000C6609C2ED2CFAEEF8A1206C0C3FD3CC0BD
:1017E0009C2E689493F8C9CFDF7DD534A9F580810C
:1017F0008D3239F4C061DF011296818162E070E0C0
:1018000006C0DF018B32C1F3119661E070E08053B6
:101810005D01A61AB70A8A30F8F4E0E8CE16ECE0CB
:10182000DE065CF4B601660F771F660F771FC60EE3
:10183000D71ECC0CDD1CC80ED11C5D01FFEFAF1A0A
:10184000BF0A8C9180538A30A8F1C4FF03C0D194A1
:10185000C194D1080C0D1D1DC1FF09C0E114F10494
:1018600031F081E0A81AB108D701AD92BC92CA014B
:10187000B9010E94B60CC370C33009F490584B01F3
:101880005C0120E030E0A9010E94B10C882309F43A
:1018900040C0C9EFD0E017FF05C0119501951109AF
:1018A000C1EED0E06E01B8E1CB1AD10880E2E82E9B
:1018B000F12C0FC0D501B1CFFE0125913591459195
:1018C00054910E191F09C501B4010E94170D4B0157
:1018D0005C01D501C4010E151F0574F72497F5941A
:1018E000E794CC16DD06A9F78A2F880F8B2F881F67
:1018F0008F3F49F020E030E0A901C501B4010E940A
:10190000B10C811106C082E290E090936302809353
:101910006202C501B401CDB7DEB7ECE00C94050E50
:1019200091110C94840D803219F089508550C8F7BC
:101930000895FB01DC014150504088F08D918134C5
:101940001CF08B350CF4805E659161341CF06B35B6
:101950000CF4605E861B611171F3990B0895881B6E
:10196000FCCF0E94F30C08F481E00895E89409C0CC
:1019700097FB3EF490958095709561957F4F8F4FC2
:101980009F4F9923A9F0F92F96E9BB279395F695D8
:10199000879577956795B795F111F8CFFAF4BB0F56
:1019A00011F460FF1BC06F5F7F4F8F4F9F4F16C0BA
:1019B000882311F096E911C0772321F09EE8872F44
:1019C000762F05C0662371F096E8862F70E060E000
:1019D0002AF09A95660F771F881FDAF7880F969579
:1019E000879597F90895990F0008550FAA0BE0E81D
:1019F000FEEF16161706E807F907C0F012161306D1
:101A0000E407F50798F0621B730B840B950B39F410
:101A10000A2661F0232B242B252B21F408950A2676
:101A200009F4A140A6958FEF811D811D08950E94A4
:101A30002A0D0C949E0D0E94900D38F00E94970D77
:101A400020F0952311F00C94870D0C948D0D11242A
:101A50000C94D20D0E94AF0D70F3959FC1F3950FBA
:101A600050E0551F629FF001729FBB27F00DB11D22
:101A7000639FAA27F00DB11DAA1F649F6627B00DB2
:101A8000A11D661F829F2227B00DA11D621F739F9B
:101A9000B00DA11D621F839FA00D611D221F749FA9
:101AA0003327A00D611D231F849F600D211D822FF0
:101AB000762F6A2F11249F5750409AF0F1F0882317
:101AC0004AF0EE0FFF1FBB1F661F771F881F915044
:101AD0005040A9F79E3F510580F00C94870D0C945F
:101AE000D20D5F3FE4F3983ED4F3869577956795E2
:101AF000B795F795E7959F5FC1F7FE2B880F911D6E
:101B00009695879597F9089599278827089597F9C5
:101B10009F6780E870E060E008959FEF80EC089593
:101B200000240A94161617061806090608950024BC
:101B30000A9412161306140605060895092E039436
:101B4000000C11F4882352F0BB0F40F4BF2B11F4AA
:101B500060FF04C06F5F7F4F8F4F9F4F089557FD09
:101B60009058440F551F59F05F3F71F04795880F0B
:101B700097FB991F61F09F3F79F0879508951216A2
:101B800013061406551FF2CF4695F1DF08C016164E
:101B900017061806991FF1CF8695710561050894FF
:101BA0000895E894BB2766277727CB0197F9089516
:101BB0000E941A0EA59F900DB49F900DA49F800DBA
:101BC000911D112408952F923F924F925F926F9230
:101BD0007F928F929F92AF92BF92CF92DF92EF92BD
:101BE000FF920F931F93CF93DF93CDB7DEB7CA1B3E
:101BF000DB0B0FB6F894DEBF0FBECDBF09942A8869
:101C0000398848885F846E847D848C849B84AA8410
:101C1000B984C884DF80EE80FD800C811B81AA819D
:101C2000B981CE0FD11D0FB6F894DEBF0FBECDBF68
:101C3000ED010895A29FB001B39FC001A39F700D55
:101C4000811D1124911DB29F700D811D1124911DC4
:101C500008955058BB27AA270E94410E0C949E0D50
:101C60000E94900D38F00E94970D20F039F49F3FAC
:101C700019F426F40C948D0D0EF4E095E7FB0C940A
:101C8000870DE92F0E94AF0D58F3BA17620773074B
:101C90008407950720F079F4A6F50C94D10D0EF485
:101CA000E0950B2EBA2FA02D0B01B90190010C016C
:101CB000CA01A0011124FF27591B99F0593F50F484
:101CC000503E68F11A16F040A22F232F342F4427DC
:101CD000585FF3CF469537952795A795F0405395D4
:101CE000C9F77EF41F16BA0B620B730B840BBAF0A4
:101CF0009150A1F0FF0FBB1F661F771F881FC2F70F
:101D00000EC0BA0F621F731F841F48F48795779522
:101D10006795B795F7959E3F08F0B0CF9395880FDC
:101D200008F09927EE0F9795879508950E94AA0EBF
:101D30000C949E0D0E94970D58F00E94900D40F05B
:101D400029F45F3F29F00C94870D51110C94D20DAA
:101D50000C948D0D0E94AF0D68F39923B1F35523B8
:101D600091F3951B550BBB27AA27621773078407AE
:101D700038F09F5F5F4F220F331F441FAA1FA9F344
:101D800035D00E2E3AF0E0E832D091505040E69532
:101D9000001CCAF72BD0FE2F29D0660F771F881F93
:101DA000BB1F261737074807AB07B0E809F0BB0B86
:101DB000802DBF01FF2793585F4F3AF09E3F51059A
:101DC00078F00C94870D0C94D20D5F3FE4F3983EAD
:101DD000D4F3869577956795B795F7959F5FC9F783
:101DE000880F911D9695879597F90895E1E0660F04
:101DF000771F881FBB1F621773078407BA0720F07D
:101E0000621B730B840BBA0BEE1F88F7E0950895E5
:101E10000E940F0F6894B1110C94D20D08950E9486
:101E2000B70D88F09F5798F0B92F9927B751B0F0A8
:101E3000E1F0660F771F881F991F1AF0BA95C9F74E
:101E400014C0B13091F00E94D10DB1E008950C940E
:101E5000D10D672F782F8827B85F39F0B93FCCF3C1
:101E6000869577956795B395D9F73EF490958095CB
:101E7000709561957F4F8F4F9F4F08950E94F30C8F
:101E800008F48FEF089516F00C94980F0C948D0DB4
:101E900068940C94870D0E94B70DA8F39923C1F3A1
:101EA000AEF3DF93CF931F930F93FF92C92FDD27DC
:101EB00088232AF02197660F771F881FDAF720E022
:101EC00030E040E85FEB9FE3883920F0803E38F057
:101ED00021968F770E942A0EE8E6F0E004C00E9467
:101EE0002A0EE5E9F0E00E94A60F8B01BE01EC018D
:101EF000FB2E6F5771097595771F880B990B0E9400
:101F0000B80C28E132E741E35FE30E942A0DAF2DD0
:101F10009801AE01FF900F911F91CF91DF910E9428
:101F2000410E0C949E0D0E94F30C880B990B0895A2
:101F30009F3F31F0915020F4879577956795B7953D
:101F4000880F911D9695879597F90895DF93CF9304
:101F50001F930F93FF92EF92DF927B018C016894A5
:101F600006C0DA2EEF010E942A0DFE01E894A59129
:101F70002591359145915591A6F3EF010E94410EAF
:101F8000FE019701A801DA9469F7DF90EF90FF90C6
:101F90000F911F91CF91DF91089597FB072E16F4B3
:101FA000009407D077FD09D00E94031007FC05D0EC
:101FB0003EF4909581959F4F0895709561957F4F60
:101FC0000895A1E21A2EAA1BBB1BFD010DC0AA1F7A
:101FD000BB1FEE1FFF1FA217B307E407F50720F092
:101FE000A21BB30BE40BF50B661F771F881F991F0D
:101FF0001A9469F760957095809590959B01AC0156
:10200000BD01CF010895AA1BBB1B51E107C0AA1F48
:10201000BB1FA617B70710F0A61BB70B881F991F89
:102020005A95A9F780959095BC01CD010895EE0FC2
:10203000FF1F0590F491E02D09940F931F93CF9308
:10204000DF938230910510F482E090E0E091660227
:10205000F091670230E020E0B0E0A0E0309799F422
:102060002115310509F44AC0281B390B24303105EC
:10207000D8F58A819B816115710589F1FB019383F4
:102080008283FE0111C04081518102811381481772
:102090005907E0F04817590799F4109761F0129624
:1020A0000C93129713961C933296CF01DF91CF9128
:1020B0001F910F9108950093660210936702F4CF69
:1020C0002115310551F04217530738F0A901DB0102
:1020D0009A01BD01DF01F801C1CFEF01F9CF909363
:1020E000670280936602CDCFFE01E20FF31F81935A
:1020F00091932250310939832883D7CF20916402EC
:1021000030916502232B41F42091040130910501A7
:102110003093650220936402209102013091030103
:102120002115310541F42DB73EB74091060150917C
:102130000701241B350BE0916402F0916502E21760
:10214000F307A0F42E1B3F0B2817390778F0AC01DA
:102150004E5F5F4F2417350748F04E0F5F1F5093B7
:10216000650240936402819391939FCFF0E0E0E099
:102170009CCFCF93DF930097E9F0FC013297138255
:102180001282A0916602B0916702ED0130E020E07A
:102190001097A1F420813181820F931F2091640256
:1021A000309165022817390709F061C0F093650284
:1021B000E0936402DF91CF910895EA01CE17DF0723
:1021C000E8F54A815B819E0141155105B1F7E901AE
:1021D000FB83EA8349915991C40FD51FEC17FD0782
:1021E00061F4808191810296840F951FE9019983A2
:1021F0008883828193819B838A83F0E0E0E012965A
:102200008D919C9113970097B9F52D913C91119761
:10221000CD010296820F931F2091640230916502D6
:102220002817390739F6309751F510926702109246
:102230006602B0936502A0936402BCCFD383C283CD
:1022400040815181840F951FC817D90761F44E5FF3
:102250005F4F88819981480F591F518340838A813C
:102260009B81938382832115310509F0B0CFF093D0
:102270006702E09366029ECFFD01DC01C0CF1382AE
:102280001282D7CFB0E0A0E0E8E4F1E10C94E50DD4
:102290008C01009751F4CB010E941D108C01C801E4
:1022A000CDB7DEB7E0E10C94010EFC01E60FF71F9D
:1022B0009C0122503109E217F30708F49DC0D901AF
:1022C000CD91DC911197C617D70798F0C530D1058D
:1022D00030F3CE0104978617970708F3C61BD70B78
:1022E0002297C193D1936D937C93CF010E94B91033
:1022F000D6CF5B01AC1ABD0A4C018C0E9D1EA0917D
:102300006602B0916702512C412CF12CE12C109700
:1023100031F580916402909165028815990509F064
:102320005CC04616570608F058C080910201909193
:102330000301009741F48DB79EB74091060150917B
:102340000701841B950BE817F90708F055C0F093B7
:102350006502E0936402F90171836083A0CF8D91DF
:102360009C91119712966C90129713967C901397EC
:10237000A815B90559F56C0142E0C40ED11CCA1468
:10238000DB0420F1AC014A195B09DA0112961597BA
:1023900080F06282738251834083D9016D937C9374
:1023A000E114F10471F0D7011396FC93EE931297A8
:1023B00076CF22968C0F9D1FF90191838083F301C4
:1023C000EFCFF0936702E093660269CF4816590693
:1023D00008F42C017D01D3019ACFCB010E941D107E
:1023E0007C01009749F0AE01B8010E94FF11C801BD
:1023F0000E94B910870153CF10E000E050CFFB01DD
:10240000DC0102C001900D9241505040D8F7089570
:10241000FB01DC0101900D920020E1F70895F89492
:02242000FFCFEC
:1024220001000000680280000000000074029401B4
:10243200C101C1023202D00124026E616E00696ED6
:1024420066006F7666000D0A0073687574646F77B4
:102452006E00636F6F6C696E670068656174696EA8
:1024620067004E54433A20005345543A20005057D7
:042472004D3A2000BF
:00000001FF
