:020000040000FA
:100000000C94A8000C94D0000C94D0000C94D00058
:100010000C94D0000C94D0000C94D0000C94D00020
:100020000C94D0000C94D0000C94D0000C94D00010
:100030000C94D0000C94D0000C94D0000C94D00000
:100040000C9434040C94D0000C94A4040C947E04FE
:100050000C94D0000C94D0000C94D0000C94D000E0
:100060000C94D0000C94D00008000000BE922449EB
:10007000123EABAAAA2ABECDCCCC4C3E00000080DA
:10008000BEABAAAAAA3E00000000BF000000803F4D
:100090000000000000084178D3BB4387D1133D190D
:1000A0000E3CC3BD4282AD2B3E68EC8276BED98F3A
:1000B000E1A93E4C80EFFFBE01C4FF7F3F0000007E
:1000C00000004E414E494E495459494E46CDCCCC84
:1000D0003D0AD7233C17B7D13877CC2B329595E61C
:1000E000241FB14F0A000020410000C84200401CFC
:1000F0004620BCBE4CCA1B0E5AAEC59D7400000003
:1001000008000201000003040700000000000000D6
:100110000000000000250028002B00000000002443
:100120000027002A00040404040404040402020258
:100130000202020303030303030102040810204028
:100140008001020408102001020408102000D604D7
:1001500011241FBECFEFD8E0DEBFCDBF22E0AAE260
:10016000B1E001C01D92AA34B207E1F711E0A0E0AE
:10017000B1E0EAE1F4E202C005900D92AA32B107C3
:10018000D9F710E0C8EAD0E004C02197FE010E9430
:100190001310C73AD107C9F70E9435060C940B1209
:1001A0000C94000090E0FC01E75CFE4F24918B5D15
:1001B0009E4FFC018491882399F090E0880F991F4D
:1001C000FC01E55EFE4FA591B491FC01EF5EFE4F90
:1001D000859194918FB7F894EC91E22BEC938FBFBB
:1001E000089590E0FC01E350FF4F2491FC01E75C8F
:1001F000FE4F3491FC01EB5DFE4FE491EE23C9F01C
:10020000222339F0233001F1A8F4213019F12230F2
:1002100029F1F0E0EE0FFF1FEF5EFE4FA591B491C4
:100220008FB7F894EC91611126C030953E233C9332
:100230008FBF08952730A9F02830C9F0243049F73E
:10024000809180008F7D03C0809180008F778093A4
:100250008000DFCF84B58F7784BDDBCF84B58F7D01
:10026000FBCF8091B0008F778093B000D2CF809188
:10027000B0008F7DF9CF3E2BDACF3FB7F894809155
:10028000310190913201A0913301B091340126B532
:10029000A89B05C02F3F19F00196A11DB11D3FBFBE
:1002A000BA2FA92F982F8827BC01CD01620F711D8D
:1002B000811D911D42E0660F771F881F991F4A9587
:1002C000D1F708958F929F92AF92BF92CF92DF9213
:1002D000EF92FF924B015C010E943D016B017C019A
:1002E0000E943D016C197D098E099F09683E73408B
:1002F00081059105A8F321E0821A9108A108B108AF
:1003000088EEC80E83E0D81EE11CF11C8114910414
:10031000A104B10429F7FF90EF90DF90CF90BF9038
:10032000AF909F908F9008952FB7F89460912D0112
:1003300070912E0180912F01909130012FBF08956F
:10034000AF92BF92CF92DF92EF92FF920F931F93E3
:10035000CF93DF936C017B018B01040F151FEB0121
:100360005E01AE18BF08C017D10759F06991D601D8
:10037000ED91FC910190F081E02DC6010995892B4A
:1003800079F7C501DF91CF911F910F91FF90EF9009
:10039000DF90CF90BF90AF900895FC01538D448DB6
:1003A000252F30E0842F90E0821B930B541710F020
:1003B000CF96089501970895FC01918D828D98172D
:1003C00061F0A28DAE0FBF2FB11D5D968C91928D05
:1003D0009F5F9F73928F90E008958FEF9FEF089536
:1003E0000F931F930E94940160933D0170933E010F
:1003F00080933F019093400185E391E00E94DC01EE
:1004000097FF1DC00E94940100913D0110913E0193
:1004100020913F0130914001601B710B820B930BC7
:100420000091390110913A0120913B0130913C013A
:100430006017710782079307F8F28FEF9FEF1F9104
:100440000F910895FC01918D828D981731F0828D66
:10045000E80FF11D858D90E008958FEF9FEF0895CF
:10046000FC01918D228D892F90E0805C9F4F821B33
:1004700091098F739927089585E391E00E943002D6
:1004800021E0892B09F420E0822F089580E090E09C
:10049000892B29F00E943C0281110C9400000895E0
:1004A000FC01A48DA80FB92FB11DA35ABF4F2C91E9
:1004B000848D90E001968F739927848FA689B789E0
:1004C0002C93A089B1898C91837080648C93938DD7
:1004D000848D981306C00288F389E02D80818F7D7A
:1004E00080830895EF92FF920F931F93CF93DF9332
:1004F000EC0181E0888F9B8D8C8D98131AC0E88960
:10050000F989808185FF15C09FB7F894EE89FF892E
:100510006083E889F98980818370806480839FBFCC
:1005200081E090E0DF91CF911F910F91FF90EF90CC
:100530000895F62E0B8D10E00F5F1F4F0F731127DC
:10054000E02E8C8D8E110CC00FB607FCFACFE88917
:10055000F989808185FFF5CFCE010E945002F1CF4D
:10056000EB8DEC0FFD2FF11DE35AFF4FF0829FB78B
:10057000F8940B8FEA89FB8980818062CFCFCF937B
:10058000DF93EC01888D8823B9F0AA89BB89E889BB
:10059000F9898C9185FD03C0808186FD0DC00FB661
:1005A00007FCF7CF8C9185FFF2CF808185FFEDCFDF
:1005B000CE010E945002E9CFDF91CF910895FC0156
:1005C00001900020E9F73197AF01481B590BBC019E
:1005D00085E391E00C94A0018F929F92AF92BF921D
:1005E0000F931F93CF93DF93CDB7DEB7A1970FB6CD
:1005F000F894DEBF0FBECDBF19A2423008F44AE026
:100600008E010F5D1F4F842E912CB12CA12CA501C2
:1006100094010E94DD0FE62FB901CA01EA30F4F41B
:10062000E05DD801EE938D01232B242B252B79F748
:1006300090E080E0109719F0CD010E94DF02A196B2
:100640000FB6F894DEBF0FBECDBFDF91CF911F91E3
:100650000F91BF90AF909F908F900895E95CE1CF8C
:100660004F925F926F927F928F929F92AF92BF92C2
:10067000CF92DF92EF92FF920F931F93CF936B0174
:100680007C01742EAC019B010E948F0F882399F08E
:100690008AE191E0CF911F910F91FF90EF90DF9051
:1006A000CF90BF90AF909F908F907F906F905F9012
:1006B0004F900C94DF0246015701E894B7F82FEFF2
:1006C0003FEF4FE75FE7C501B4010E948F0F811133
:1006D0000DC02FEF3FEF4FE75FE7C501B4010E9468
:1006E000AD0C18161CF48EE191E0D4CF2FEF3FEF44
:1006F0004FE75FE4C701B6010E943A0F18161CF4D9
:1007000082E291E0C7CF2FEF3FEF4FE75FECC701E9
:10071000B6010E94AD0C87FDF3CF20E030E0A901C7
:10072000C701B6010E94AD0C10E000E087FF0AC0CF
:100730006DE285E391E00E9472028C01F7FAF09479
:10074000F7F8F094C0E060E070E080E09FE37C1692
:1007500041F020E030E040E251E40E94920ECF5F91
:10076000F6CFA70196010E94260E2B013C010E94A4
:100770000B0F4B015C014AE00E94EC027C01E00E91
:10078000F11ECC23C1F1C501B4010E94B20C9B0142
:10079000AC01C301B2010E94250E4B015C016EE267
:1007A00085E391E00E947202E80EF91EC15018F133
:1007B00020E030E040E251E4C501B4010E94130D95
:1007C0002B013C010E940B0F4B01B12CA12C4AE0E4
:1007D000C501B4010E94EC02E80EF91EC501B40186
:1007E0000E94B20C9B01AC01C301B2010E94250E14
:1007F0004B015C01DBCFC701CF911F910F91FF909F
:10080000EF90DF90CF90BF90AF909F908F907F90B0
:100810006F905F904F9008950F931F93CF93DF9346
:10082000EC0188819981009759F02A813B81261734
:10083000370730F081E0DF91CF911F910F9108953C
:100840008B016F5F7F4F0E943E11009759F0998393
:1008500088831B830A832C813D81232B59F7FC015C
:100860001082E8CF80E0E7CF1F920F920FB60F9271
:1008700011242F933F938F939F93AF93BF938091B6
:100880002D0190912E01A0912F01B0913001309156
:100890002C0123E0230F2D3758F50196A11DB11D22
:1008A00020932C0180932D0190932E01A0932F0172
:1008B000B09330018091310190913201A0913301C8
:1008C000B09134010196A11DB11D80933101909327
:1008D0003201A0933301B0933401BF91AF919F9146
:1008E0008F913F912F910F900FBE0F901F901895F1
:1008F00026E8230F0296A11DB11DD2CF1F920F92A1
:100900000FB60F9211242F933F934F935F936F93E2
:100910007F938F939F93AF93BF93EF93FF9385E361
:1009200091E00E945002FF91EF91BF91AF919F9192
:100930008F917F916F915F914F913F912F910F9088
:100940000FBE0F901F9018951F920F920FB60F9227
:1009500011242F938F939F93EF93FF93E091450181
:10096000F09146018081E0914B01F0914C0182FDB4
:100970001BC0908180914E018F5F8F7320914F013A
:10098000821741F0E0914E01F0E0EB5CFE4F958F55
:1009900080934E01FF91EF919F918F912F910F9036
:1009A0000FBE0F901F9018958081F4CF0F931F9367
:1009B000109238011092370188EE93E0A0E0B0E089
:1009C0008093390190933A01A0933B01B0933C018D
:1009D0008CE091E0909336018093350185EC90E0B6
:1009E000909342018093410184EC90E09093440104
:1009F0008093430180EC90E0909346018093450101
:100A000081EC90E0909348018093470182EC90E064
:100A100090934A018093490186EC90E090934C01B9
:100A200080934B0110924E0110924F011092500191
:100A30001092510110921B0210921C0210921D0282
:100A400010921E0280E090E0A0E0B0E480931F02CC
:100A500090932002A0932102B093220210922402CC
:100A60001092230280E090E0A0EFB1E48093250291
:100A700090932602A0932702B09328021092290295
:100A800010922A0210922B0210922C0210922D0228
:100A900010922E0210922F02109230021092360203
:100AA00010923702109238021092390280E797E1D3
:100AB00090933B0280933A0210923C0210923D02C6
:100AC00010923E0210923F0288E090E09093410223
:100AD000809340028BE090E0909343028093420227
:100AE000809100019091010126ED31E03093FD01EC
:100AF0002093FC012AED31E03093FB012093FA01B1
:100B000022ED31E03093FF012093FE011092180294
:100B100010921002109211021092120210921302FF
:100B200040E050E06FE773E44093140250931502E5
:100B3000609316027093170244E650E060E070E0A4
:100B400040930C0250930D0260930E0270930F02BB
:100B50009093F7018093F6011092F9011092F80139
:100B60001092190240E050E060E771E44093DE012A
:100B70005093DF016093E0017093E10100E010E029
:100B800020E830E40093E2011093E3012093E401B4
:100B90003093E50100E010E020E83FE30093E60138
:100BA0001093E7012093E8013093E9014093EA01B3
:100BB0005093EB016093EC017093ED014DEC5CEC14
:100BC0006CEC7EE34093EE015093EF016093F001F3
:100BD0007093F10140E050E060E271E44093F20173
:100BE0005093F3016093F4017093F501019721F59F
:100BF00080E090E0A0E7B1EC8093EA019093EB01F4
:100C0000A093EC01B093ED018DEC9CECACECBEEB51
:100C10008093EE019093EF01A093F001B093F10166
:100C200080E090E0A0E2B1EC8093F2019093F301B8
:100C3000A093F401B093F5010E94940100910C027D
:100C400010910D0220910E0230910F02601B710B6A
:100C5000820B930B60930002709301028093020257
:100C6000909303021F910F910895CF93DF93CDB717
:100C7000DEB765970FB6F894DEBF0FBECDBF789490
:100C800084B5826084BD84B5816084BD85B5826091
:100C900085BD85B5816085BD80916E008160809342
:100CA0006E001092810080918100826080938100AB
:100CB00080918100816080938100809180008160BB
:100CC000809380008091B10084608093B100809116
:100CD000B00081608093B00080917A00846080933E
:100CE0007A0080917A00826080937A0080917A0005
:100CF000816080937A0080917A00806880937A0086
:100D00001092C100E0914501F091460182E080839C
:100D1000E0914101F09142011082E0914301F09194
:100D200044018FEC808310924D01E0914901F091D4
:100D30004A0186E08083E0914701F091480180817B
:100D400080618083E0914701F09148018081886053
:100D50008083E0914701F091480180818068808321
:100D6000E0914701F091480180818F7D80838091DF
:100D700040020E94D200809142020E94D2008091E3
:100D80001802811149C0E091FC01F091FD01C08081
:100D9000D180E280F380C0920402D0920502E092FA
:100DA0000602F0920702E091FA01F091FB018081C6
:100DB0009181A281B3818093080290930902A0934C
:100DC0000A02B0930B028090140290901502A0903A
:100DD0001602B0901702A5019401C701B6010E9446
:100DE0003A0F18164CF48092040290920502A092D9
:100DF0000602B092070210C080901002909011027B
:100E0000A0901202B0901302A5019401C701B6018F
:100E10000E94AD0C87FDE7CF81E08093180280919E
:100E200000019091010190932B0180932A01809100
:100E30003102811104C12091290230912A0240918E
:100E40002B0250912C026091250270912602809114
:100E50002702909128020E94AD0C87FFF0C00E94EB
:100E60009401609332027093330280933402909322
:100E700035020091360210913702209138023091EC
:100E800039026B017C01C01AD10AE20AF30A00910F
:100E90003A0210913B02012E000C220B330B0C1571
:100EA0001D052E053F05C4F40091290210912A0268
:100EB00020912B0230912C0200933C0210933D02B2
:100EC00020933E0230933F026093360270933702C4
:100ED000809338029093390260913C0270913D02F8
:100EE00080913E0290913F0242E00E94300386E2F0
:100EF00091E00E94DF022091290230912A02409164
:100F00002B0250912C0260913C0270913D02809125
:100F10003E0290913F020E943A0F87FD9AC060E026
:100F2000809140020E94F10061E0809142020E94A3
:100F3000F10001E010E010930101009300018091A5
:100F40001802882309F447C08091F6019091F701B7
:100F50008017910709F43FC02091EA013091EB011D
:100F60004091EC015091ED0160E070E0CB010E94F6
:100F7000250E6093EA017093EB018093EC0190934E
:100F8000ED012091EE013091EF014091F00150917F
:100F9000F10160E070E0CB010E94250E6093EE014C
:100FA0007093EF018093F0019093F1012091F20191
:100FB0003091F3014091F4015091F50160E070E04F
:100FC000CB010E94250E6093F2017093F301809390
:100FD000F4019093F5011093F7010093F60110923C
:100FE00024021092230210921A0280911A02853074
:100FF00098F583E480937C0080917A0080648093EC
:101000007A0080917A0086FDFCCF209178003091A3
:1010100079008091230290912402820F931F909374
:101020002402809323026AE070E080E090E00E9456
:10103000620180911A028F5F80931A02D6CF61E01D
:10104000809140020E94F10060E0809142020E9483
:10105000F10010E000E06FCF809123029091240214
:1010600065E070E00E94C90F072E000C880B990BF9
:101070000E94B40C9B01AC0160E070EC8FE794E43B
:101080000E94920E20E030E040E85FE30E94250ECF
:101090009B01AC0160E070E48CE196E40E94920E4A
:1010A00060931B0270931C0280931D0290931E029A
:1010B00020E030E44CE156E40E94920E0E94470F7B
:1010C00020E030E848E755E40E94920E2FE03FEC24
:1010D0004BE55BE30E94260E9B01AC0160E070E0F3
:1010E00080E89FE30E94920E23E333E948E853E44B
:1010F0000E94250E6093290270932A0280932B028E
:1011000090932C026093DA017093DB018093DC01F1
:101110009093DD0185E391E00E94300218161906D4
:101120000CF07AC01A8219821C821B821E821D82D8
:1011300070E060E0CE0101960E940C0429813A81A2
:1011400081112EC02115310519F0C9010E94B51079
:101150001A8219821E821D821C821B820E94F0014B
:1011600097FD26C08A30910519F18F8318860D816D
:101170001E810F5F1F4FB801CE0101960E940C0423
:10118000882361F329813A818D819E81BE01695F47
:101190007F4F820F931F0E9404121E830D83DECFA8
:1011A0001E821D8268E271E0C9010E940412D6CF3E
:1011B000A980BA80A114B10439F00D811E81750196
:1011C0000115110509F0BAC189819A8120E030E04A
:1011D000A901009721F00E94380B9B01AC012093DC
:1011E00025023093260240932702509328026091F3
:1011F0002D0270912E0280912F02909130020E9458
:10120000AD0C881F8827881F8093310289819A81BD
:10121000009711F00E94B51080912502909126024E
:10122000A0912702B091280280932D0290932E0264
:10123000A0932F02B09330028093D2019093D301F8
:10124000A093D401B093D50180911802882309F4AA
:1012500028C10E9494016D877E878F87988B80912B
:10126000000290910102A0910202B09103024D850B
:101270005E856F857889481B590B6A0B7B0B8091C3
:101280000C0290910D02A0910E02B0910F0248172E
:1012900059076A077B0708F404C1E091FA01F0914D
:1012A000FB0180819181A281B38189879A87AB8775
:1012B000BC87E091FE01F091FF019C01AD016081CE
:1012C0007181828193810E94250E4B015C012091E6
:1012D00008023091090240910A0250910B0269857F
:1012E0007A858B859C850E94250E6B017C0120915F
:1012F000EE013091EF014091F0015091F101C501F3
:10130000B4010E94130D2091040230910502409116
:101310000602509107020E94260E2B013C014092CA
:1013200004025092050260920602709207029091A8
:101330001902998B91111AC02091EA013091EB01A9
:101340004091EC015091ED01C701B6010E94130DCF
:101350009B01AC01C301B2010E94250E60930402FF
:101360007093050280930602909307024090040256
:1013700050900502609006027090070200911402DE
:10138000309015022090160210911702202F332D55
:10139000422D512FC301B2010E943A0F18160CF0D2
:1013A00003C1802F932DA22DB12F8093040290931F
:1013B0000502A0930602B09307029989992309F4C4
:1013C0000CC12091EA013091EB014091EC01509168
:1013D000ED01C501B4010E94130D4B015C01209188
:1013E000F2013091F3014091F4015091F501C701F0
:1013F000B6010E94130D9B01AC0160910402709133
:10140000050280910602909107020E94250EA50117
:1014100094010E94260E6B017C019B01AC01602FA0
:10142000732D822D912F0E94AD0C87FD16C0009167
:101430001002309011022090120210911302202FFE
:10144000332D422D512FB601C7010E94AD0C87FDEF
:1014500004C00C2D3D2C2E2C1F2DE091FC01F09191
:10146000FD01802F932DA22DB12F80839183A28324
:10147000B38389859A85AB85BC8580930802909358
:101480000902A0930A02B0930B028D859E85AF8559
:10149000B8898093000290930102A0930202B09356
:1014A000030220912A0130912B018091000190913B
:1014B00001012817390741F01092D6011092D70187
:1014C0001092D8011092D9016091D6017091D70184
:1014D0008091D8019091D9010E94040F6B018B017A
:1014E00089E00E94D200C114D10409F07AC060E002
:1014F00089E00E94F1006091DA017091DB01809136
:10150000DC019091DD0142E00E94300386E291E02F
:101510000E94DF0264E170E080E090E00E946201DE
:1015200080E090E0892B09F47ACC0E943C02882369
:1015300009F475CC0E94000072CC760167019FEF20
:10154000C91AD90AD7018C91082E000C990B0E9458
:101550008C0C892B91F7015011090A0D1B1DF80104
:101560008081082E000C990B0E948C0C892B31F085
:101570000E151F0518F001501109F1CF0F5F1F4F15
:10158000A8014E195F095E834D83AE14BF0420F499
:10159000B701C5010E94FB11E981FA818D819E810D
:1015A000E80FF91F108210CE809110029091110265
:1015B000A0911202B09113028A8B9B8BAC8BBD8BD6
:1015C0009C01AD01C301B2010E94AD0C87FFF5CEB5
:1015D0008A899B89AC89BD89E8CE812C912C5401E4
:1015E000FECE0F3F110511F461E082CFE6E0F1E09D
:1015F0008491833019F140F48130B1F08230C9F028
:10160000003811058CF773CF873011F1883041F124
:101610008430B1F780918000806280938000D09206
:101620008B00C0928A0067CF84B5806884BDC7BC38
:1016300062CF84B5806284BDC8BC5DCF80918000DC
:10164000806880938000D0928900C092880053CF38
:101650008091B00080688093B000C092B3004BCFFF
:101660008091B00080628093B000C092B40043CFFC
:10167000662777270C943C0BB0E0A0E0E2E4FBE0A7
:101680000C94E50D5C017B016115710519F0DB011E
:101690008D939C9385010F5F1F4FF501D0818D2F96
:1016A00090E00E948C0C6C01892BB9F5DD32B9F504
:1016B0000F5F1F4FD5011196DC91C1E05801F1E099
:1016C000AF1AB10843E050E06AEC70E0C5010E9437
:1016D000950C892B69F5680182E0C80ED11C45E0A4
:1016E00050E065EC70E0C6010E94950C892B21F456
:1016F000680197E0C90ED11CE114F10419F0D7017B
:10170000CD92DC9260E070E080E89FEFC111FFC0F5
:1017100060E070E080E89FE7FAC05801BBCFDB32A1
:1017200029F485010E5F1F4FF501D181C0E0C6CFBE
:1017300043E050E062EC70E0C5010E94950C892BFB
:10174000E9F0F80110E000E020E030E0A9015F01DD
:10175000B0ED8B2E8D0E89E08815C8F19C2E689413
:1017600091F88C2F8870C2FF16C0811102C00F5FE4
:101770001F4F3196D501DC91C92DE9CFE114F10459
:1017800029F00E5F1F4FF7011183008360E070E0C6
:1017900080EC9FE7BCC0882311F001501109A5E03F
:1017A000B0E00E94D40D9B01AC01220F331F441FF7
:1017B000551F280D311D411D511D283999E9390743
:1017C000490799E15907A8F2C6609C2ED2CFAEEF27
:1017D0008A1206C0C3FD3CC09C2E689493F8C9CF02
:1017E000DF7DD534A9F580818D3239F4C061DF0108
:1017F0001296818162E070E006C0DF018B32C1F396
:10180000119661E070E080535D01A61AB70A8A3034
:10181000F8F4E0E8CE16ECE0DE065CF4B601660F04
:10182000771F660F771FC60ED71ECC0CDD1CC80EA7
:10183000D11C5D01FFEFAF1ABF0A8C9180538A3033
:10184000A8F1C4FF03C0D194C194D1080C0D1D1D93
:10185000C1FF09C0E114F10431F081E0A81AB10818
:10186000D701AD92BC92CA01B9010E94B20CC370FB
:10187000C33009F490584B015C0120E030E0A9012D
:101880000E94AD0C882309F440C0C9EFD0E017FFD7
:1018900005C0119501951109C1EED0E06E01B8E1C6
:1018A000CB1AD10880E2E82EF12C0FC0D501B1CFC0
:1018B000FE0125913591459154910E191F09C501DD
:1018C000B4010E94130D4B015C01D501C4010E153A
:1018D0001F0574F72497F594E794CC16DD06A9F755
:1018E0008A2F880F8B2F881F8F3F49F020E030E030
:1018F000A901C501B4010E94AD0C811106C082E2AC
:1019000090E09093450280934402C501B401CDB7A5
:10191000DEB7ECE00C94010E91110C94800D803236
:1019200019F089508550C8F70895FB01DC0141503A
:10193000504088F08D9181341CF08B350CF4805E22
:10194000659161341CF06B350CF4605E861B61118F
:1019500071F3990B0895881BFCCF0E94EF0C08F4DB
:1019600081E00895E89409C097FB3EF49095809536
:10197000709561957F4F8F4F9F4F9923A9F0F92F55
:1019800096E9BB279395F695879577956795B795D3
:10199000F111F8CFFAF4BB0F11F460FF1BC06F5FB9
:1019A0007F4F8F4F9F4F16C0882311F096E911C0CB
:1019B000772321F09EE8872F762F05C0662371F0EC
:1019C00096E8862F70E060E02AF09A95660F771F00
:1019D000881FDAF7880F9695879597F90895990FDC
:1019E0000008550FAA0BE0E8FEEF16161706E807E9
:1019F000F907C0F012161306E407F50798F0621B0A
:101A0000730B840B950B39F40A2661F0232B242BDE
:101A1000252B21F408950A2609F4A140A6958FEFFD
:101A2000811D811D08950E94260D0C949A0D0E941F
:101A30008C0D38F00E94930D20F0952311F00C943A
:101A4000830D0C94890D11240C94CE0D0E94AB0DC6
:101A500070F3959FC1F3950F50E0551F629FF00101
:101A6000729FBB27F00DB11D639FAA27F00DB11D1A
:101A7000AA1F649F6627B00DA11D661F829F2227A3
:101A8000B00DA11D621F739FB00DA11D621F839F2A
:101A9000A00D611D221F749F3327A00D611D231F00
:101AA000849F600D211D822F762F6A2F11249F574E
:101AB00050409AF0F1F088234AF0EE0FFF1FBB1F51
:101AC000661F771F881F91505040A9F79E3F510510
:101AD00080F00C94830D0C94CE0D5F3FE4F3983EA0
:101AE000D4F3869577956795B795F795E7959F5FBA
:101AF000C1F7FE2B880F911D9695879597F908954C
:101B000099278827089597F99F6780E870E060E03B
:101B100008959FEF80EC089500240A941616170686
:101B200018060906089500240A94121613061406CE
:101B300005060895092E0394000C11F4882352F031
:101B4000BB0F40F4BF2B11F460FF04C06F5F7F4FE9
:101B50008F4F9F4F089557FD9058440F551F59F0D0
:101B60005F3F71F04795880F97FB991F61F09F3F8A
:101B700079F087950895121613061406551FF2CFB3
:101B80004695F1DF08C0161617061806991FF1CF03
:101B900086957105610508940895E894BB2766272A
:101BA0007727CB0197F908950E94160EA59F900DF7
:101BB000B49F900DA49F800D911D112408952F9224
:101BC0003F924F925F926F927F928F929F92AF92CD
:101BD000BF92CF92DF92EF92FF920F931F93CF931A
:101BE000DF93CDB7DEB7CA1BDB0B0FB6F894DEBFB1
:101BF0000FBECDBF09942A88398848885F846E84D7
:101C00007D848C849B84AA84B984C884DF80EE8020
:101C1000FD800C811B81AA81B981CE0FD11D0FB629
:101C2000F894DEBF0FBECDBFED010895A29FB001B5
:101C3000B39FC001A39F700D811D1124911DB29F00
:101C4000700D811D1124911D08955058BB27AA279E
:101C50000E943D0E0C949A0D0E948C0D38F00E944B
:101C6000930D20F039F49F3F19F426F40C94890D5C
:101C70000EF4E095E7FB0C94830DE92F0E94AB0D69
:101C800058F3BA17620773078407950720F079F4B1
:101C9000A6F50C94CD0D0EF4E0950B2EBA2FA02DC9
:101CA0000B01B90190010C01CA01A0011124FF2709
:101CB000591B99F0593F50F4503E68F11A16F04004
:101CC000A22F232F342F4427585FF3CF4695379503
:101CD0002795A795F0405395C9F77EF41F16BA0BC8
:101CE000620B730B840BBAF09150A1F0FF0FBB1F76
:101CF000661F771F881FC2F70EC0BA0F621F731FBF
:101D0000841F48F4879577956795B795F7959E3F1B
:101D100008F0B0CF9395880F08F09927EE0F9795AC
:101D2000879508950E94A60E0C949A0D0E94930D1B
:101D300058F00E948C0D40F029F45F3F29F00C947C
:101D4000830D51110C94CE0D0C94890D0E94AB0D96
:101D500068F39923B1F3552391F3951B550BBB27DA
:101D6000AA2762177307840738F09F5F5F4F220F1F
:101D7000331F441FAA1FA9F335D00E2E3AF0E0E816
:101D800032D091505040E695001CCAF72BD0FE2F60
:101D900029D0660F771F881FBB1F261737074807F4
:101DA000AB07B0E809F0BB0B802DBF01FF279358AC
:101DB0005F4F3AF09E3F510578F00C94830D0C94E0
:101DC000CE0D5F3FE4F3983ED4F386957795679503
:101DD000B795F7959F5FC9F7880F911D96958795E1
:101DE00097F90895E1E0660F771F881FBB1F621700
:101DF00073078407BA0720F0621B730B840BBA0BBE
:101E0000EE1F88F7E09508950E940B0F6894B111BA
:101E10000C94CE0D08950E94B30D88F09F5798F052
:101E2000B92F9927B751B0F0E1F0660F771F881FDF
:101E3000991F1AF0BA95C9F714C0B13091F00E94F9
:101E4000CD0DB1E008950C94CD0D672F782F882724
:101E5000B85F39F0B93FCCF3869577956795B39520
:101E6000D9F73EF490958095709561957F4F8F4F8F
:101E70009F4F08950E94EF0C08F48FEF089516F01D
:101E80000C94940F0C94890D68940C94830D0E940B
:101E9000B30DA8F39923C1F3AEF3DF93CF931F9350
:101EA0000F93FF92C92FDD2788232AF02197660F11
:101EB000771F881FDAF720E030E040E85FEB9FE310
:101EC000883920F0803E38F021968F770E94260EC8
:101ED000E8E6F0E004C00E94260EE5E9F0E00E948A
:101EE000A20F8B01BE01EC01FB2E6F577109759596
:101EF000771F880B990B0E94B40C28E132E741E36D
:101F00005FE30E94260DAF2D9801AE01FF900F9167
:101F10001F91CF91DF910E943D0E0C949A0D0E946B
:101F2000EF0C880B990B08959F3F31F0915020F4EE
:101F3000879577956795B795880F911D96958795A5
:101F400097F90895DF93CF931F930F93FF92EF922A
:101F5000DF927B018C01689406C0DA2EEF010E94AB
:101F6000260DFE01E894A591259135914591559155
:101F7000A6F3EF010E943D0EFE019701A801DA943D
:101F800069F7DF90EF90FF900F911F91CF91DF9154
:101F9000089597FB072E16F4009407D077FD09D01B
:101FA0000E94FF0F07FC05D03EF4909581959F4F4E
:101FB0000895709561957F4F0895A1E21A2EAA1B8E
:101FC000BB1BFD010DC0AA1FBB1FEE1FFF1FA217E9
:101FD000B307E407F50720F0A21BB30BE40BF50BE6
:101FE000661F771F881F991F1A9469F7609570956F
:101FF000809590959B01AC01BD01CF010895AA1B6E
:10200000BB1B51E107C0AA1FBB1FA617B70710F0E3
:10201000A61BB70B881F991F5A95A9F78095909515
:10202000BC01CD010895EE0FFF1F0590F491E02D46
:1020300009940F931F93CF93DF938230910510F48F
:1020400082E090E0E0914802F091490230E020E027
:10205000B0E0A0E0309799F42115310509F44AC0A9
:10206000281B390B24303105D8F58A819B816115F5
:10207000710589F1FB0193838283FE0111C04081C8
:1020800051810281138148175907E0F04817590719
:1020900099F4109761F012960C93129713961C9373
:1020A0003296CF01DF91CF911F910F910895009348
:1020B000480210934902F4CF2115310551F042171F
:1020C000530738F0A901DB019A01BD01DF01F801D6
:1020D000C1CFEF01F9CF9093490280934802CDCF51
:1020E000FE01E20FF31F819391932250310939834E
:1020F0002883D7CF2091460230914702232B41F409
:10210000209104013091050130934702209346024B
:1021100020910201309103012115310541F42DB7C1
:102120003EB74091060150910701241B350BE09109
:102130004602F0914702E217F307A0F42E1B3F0B73
:102140002817390778F0AC014E5F5F4F2417350729
:1021500048F04E0F5F1F5093470240934602819311
:1021600091939FCFF0E0E0E09CCFCF93DF93009777
:10217000E9F0FC01329713821282A0914802B091DB
:102180004902ED0130E020E01097A1F42081318177
:10219000820F931F2091460230914702281739077A
:1021A00009F061C0F0934702E0934602DF91CF91BE
:1021B0000895EA01CE17DF07E8F54A815B819E01A9
:1021C00041155105B1F7E901FB83EA834991599122
:1021D000C40FD51FEC17FD0761F480819181029631
:1021E000840F951FE90199838883828193819B8362
:1021F0008A83F0E0E0E012968D919C91139700970E
:10220000B9F52D913C911197CD010296820F931F44
:1022100020914602309147022817390739F6309746
:1022200051F51092490210924802B0934702A093D0
:102230004602BCCFD383C28340815181840F951F56
:10224000C817D90761F44E5F5F4F88819981480FA5
:10225000591F518340838A819B81938382832115F7
:10226000310509F0B0CFF0934902E09348029ECFC8
:10227000FD01DC01C0CF13821282D7CFB0E0A0E015
:10228000E4E4F1E10C94E10D8C01009751F4CB01F1
:102290000E9419108C01C801CDB7DEB7E0E10C94A3
:1022A000FD0DFC01E60FF71F9C0122503109E217DA
:1022B000F30708F49DC0D901CD91DC911197C617A1
:1022C000D70798F0C530D10530F3CE0104978617B3
:1022D000970708F3C61BD70B2297C193D1936D9331
:1022E0007C93CF010E94B510D6CF5B01AC1ABD0A1A
:1022F0004C018C0E9D1EA0914802B0914902512CB8
:10230000412CF12CE12C109731F5809146029091EF
:1023100047028815990509F05CC04616570608F073
:1023200058C08091020190910301009741F48DB74C
:102330009EB74091060150910701841B950BE81749
:10234000F90708F055C0F0934702E0934602F901FF
:1023500071836083A0CF8D919C91119712966C90A0
:10236000129713967C901397A815B90559F56C012F
:1023700042E0C40ED11CCA14DB0420F1AC014A199E
:102380005B09DA011296159780F06282738251839D
:102390004083D9016D937C93E114F10471F0D7016E
:1023A0001396FC93EE93129776CF22968C0F9D1F77
:1023B000F90191838083F301EFCFF0934902E09319
:1023C000480269CF4816590608F42C017D01D30153
:1023D0009ACFCB010E9419107C01009749F0AE0101
:1023E000B8010E94FB11C8010E94B510870153CFAC
:1023F00010E000E050CFFB01DC0102C001900D9223
:1024000041505040D8F70895FB01DC0101900D9236
:102410000020E1F70895F894FFCF010000004A0280
:102420008000000000007202A001CD01BF02300256
:10243000DC0122026E616E00696E66006F766600D6
:042440000D0A000081
:107E0000112484B714BE81FFF0D085E080938100F7
:107E100082E08093C00088E18093C10086E0809377
:107E2000C20080E18093C4008EE0C9D0259A86E02C
:107E300020E33CEF91E0309385002093840096BBD3
:107E4000B09BFECF1D9AA8958150A9F7CC24DD24C4
:107E500088248394B5E0AB2EA1E19A2EF3E0BF2EE7
:107E6000A2D0813461F49FD0082FAFD0023811F036
:107E7000013811F484E001C083E08DD089C08234E0
:107E800011F484E103C0853419F485E0A6D080C0E4
:107E9000853579F488D0E82EFF2485D0082F10E0AE
:107EA000102F00270E291F29000F111F8ED06801E7
:107EB0006FC0863521F484E090D080E0DECF843638
:107EC00009F040C070D06FD0082F6DD080E0C81688
:107ED00080E7D80618F4F601B7BEE895C0E0D1E017
:107EE00062D089930C17E1F7F0E0CF16F0E7DF06D8
:107EF00018F0F601B7BEE89568D007B600FCFDCFD4
:107F0000A601A0E0B1E02C9130E011968C91119780
:107F100090E0982F8827822B932B1296FA010C0160
:107F200087BEE89511244E5F5F4FF1E0A038BF0790
:107F300051F7F601A7BEE89507B600FCFDCF97BE46
:107F4000E89526C08437B1F42ED02DD0F82E2BD052
:107F50003CD0F601EF2C8F010F5F1F4F84911BD097
:107F6000EA94F801C1F70894C11CD11CFA94CF0C13
:107F7000D11C0EC0853739F428D08EE10CD085E9AC
:107F80000AD08FE07ACF813511F488E018D01DD067
:107F900080E101D065CF982F8091C00085FFFCCF94
:107FA0009093C60008958091C00087FFFCCF809118
:107FB000C00084FD01C0A8958091C6000895E0E648
:107FC000F0E098E1908380830895EDDF803219F02E
:107FD00088E0F5DFFFCF84E1DECF1F93182FE3DFCA
:107FE0001150E9F7F2DF1F91089580E0E8DFEE27F6
:047FF000FF270994CA
:027FFE00040479
:00000001FF
